:100000000C9441000C94CC000C94F1000C945E0014
:100010000C945E000C945E000C945E000C945E00E8
:100020000C945E000C945E000C9460000C945E00D6
:100030000C945E000C948B000C945E000C945E009B
:100040000C945E000C945E000C945E000C945E00B8
:100050000C945E00084AD73B3BCE016E84BCBFFDCA
:10006000C12F3D6C74319ABD56833DDA3D00C77F88
:1000700011BED9E4BB4C3E916BAAAABE0000008021
:100080003F0011241FBECFE5D8E0DEBFCDBF10E09A
:10009000A0E6B0E0ECEDF6E102C005900D92A636C8
:1000A000B107D9F710E0A6E6B0E001C01D92A63C6A
:1000B000B107E1F70E9476010C946C0B0C940000E0
:1000C0001F920F920FB60F9211242F933F934F93CD
:1000D0005F936F937F938F939F93AF93BF93EF93B0
:1000E000FF93809169008F5F80936900843011F4E1
:1000F0000E94AB07FF91EF91BF91AF919F918F91BC
:100100007F916F915F914F913F912F910F900FBE13
:100110000F901F9018951F920F920FB60F921124F7
:100120002F933F934F935F936F937F938F939F93FF
:10013000AF93BF93EF93FF930E94D407803421F4D1
:1001400091E09093680004C090916800913051F460
:1001500090916600ECEBF0E0E90FF11D80839F5F6A
:10016000909366008B3339F41092680081E080939D
:10017000670010926600FF91EF91BF91AF919F9140
:100180008F917F916F915F914F913F912F910F9040
:100190000FBE0F901F9018951F920F920FB60F92DF
:1001A00011242F933F934F935F936F937F938F937C
:1001B0009F93AF93BF93EF93FF9380E00E948B01D7
:1001C000FF91EF91BF91AF919F918F917F916F912F
:1001D0005F914F913F912F910F900FBE0F901F9005
:1001E00018951F920F920FB60F9211242F933F93E1
:1001F0004F935F936F937F938F939F93AF93BF932F
:10020000EF93FF9381E00E948B01FF91EF91BF91EB
:10021000AF919F918F917F916F915F914F913F919E
:100220002F910F900FBE0F901F901895CF93DF93D3
:1002300000D000D0CDB7DEB78091BD00833489F403
:100240008091C00089838091C1008A838091C2001F
:100250008B838091C3008C83CE0101960E9476022D
:100260003EC08E34E1F1853441F58091BE00823488
:10027000B1F52091C1008091C00090E0880F991FD6
:10028000BC01660F771F660F771F860F971FBC0193
:10029000620F711D605D74412091BF0030E044E643
:1002A00050E0249FC001259F900D349F900D112494
:1002B000860F971F0E94BF0112C0813481F4809184
:1002C000BF00883461F48091C000833521F481E05F
:1002D00080936A0004C0853411F410926A000F9074
:1002E0000F900F900F90DF91CF9108950E94A20779
:1002F0000E94C8070E946B0280916700813029F438
:100300000E94160110926700F7CFFFCF0E9492065D
:100310000E94840608958823A9F420916F002F5F1E
:1003200020936F0030E08091600090916100281769
:100330003907F1F480916D008F5F80936D0010920A
:100340006F0008958130A1F420916E002F5F2093FB
:100350006E0030E0809160009091610028173907AD
:1003600039F480916C008F5F80936C0010926E0066
:10037000089580936B00089510926B0008959093F8
:10038000610080936000089581E020916E0090915B
:100390006B00291380E0089590916D0080916F00AB
:1003A000981739F481E020916C00921719F080E0E1
:1003B000089580E008950895CF93C82F663461F5BD
:1003C000463461F490E00E9486078C2F90E00E94F2
:1003D0006607D89AC09AD998D9987BC0423569F4F3
:1003E00090E00E9486078C2F869590E00E94660719
:1003F000D89AC09AD998D9986CC04C3499F58695FA
:1004000090E00E9486078C2F90E00E946607D89AA1
:10041000C09AD998D9985DC0623589F4423509F0FF
:1004200052C090E00E9486078C2F8695869590E0BA
:100430000E946607D89AC09AD998D9984AC06C3455
:1004400089F44C3409F045C08695869590E00E9469
:1004500086078C2F90E00E946607D89AC09AD99898
:10046000D99837C0623479F5423469F48C2F90E022
:100470000E9486078C2F90E00E946607D898C0984B
:10048000D99AD99A26C04C3471F48C2F869590E075
:100490000E9486078C2F90E00E946607D898C0982B
:1004A000D99AD99A16C04235A1F48C2F90E00E94B7
:1004B00086078C2F869590E00E946607D898C09892
:1004C000D99AD99A06C0633521F40E9476070E9412
:1004D0009907CF9108950E9460070E947C070E94AF
:1004E0008601D09AD19AB89AB99A0895FC0161818F
:1004F00080818051962F990F292F220F220F920F62
:100500004281890F90E070E050E00E94DC01089584
:10051000CF93DF9300D0CDB7DEB719821A820E9445
:10052000A40680ED65E7AE014F5F5F4F21E00E94BA
:10053000FE068981883619F51A8280ED6BE6AE01D8
:100540004E5F5F4F0E94CC0687E08A8380ED69E1B1
:10055000AE014E5F5F4F0E94CC061A8280ED6CE1C7
:10056000AE014E5F5F4F0E94CC061A8280ED6BE1B8
:10057000AE014E5F5F4F0E94CC0680E001C081E07B
:100580000F900F90DF91CF9108952F923F924F924D
:100590005F926F927F928F929F92AF92BF92CF9213
:1005A000DF92EF92FF920F931F93CF93DF93CDB71C
:1005B000DEB76A970FB6F894DEBF0FBECDBF1C0141
:1005C0004D8B5E8B6F8B788F46015701DC01509607
:1005D0008D919D910D90BC91A02D898B9A8BAB8BA9
:1005E000BC8BA9019801281B390B4A0B5B0BC70177
:1005F000B6010E94100BAB01BC01F1018485958509
:10060000A685B7858A019B01080F191F2A1F3B1F6A
:1006100009831A832B833C8300A111A122A133A15A
:100620000D871E872F87388BC901B801A701960156
:100630000E94100B6B017C01D10158960D911D9108
:100640002D913C915B970D831E832F8338875C9699
:100650000D911D912D913C915F9709871A872B87EA
:100660003C87AB01BC010D811E812F813885401B69
:10067000510B620B730B09851A852B853C85401B3A
:10068000510B620B730B8D919D910D90BC91A02D20
:10069000840F951FA61FB71FBC01CD01A5019401B2
:1006A0000E94100BAB01BC01F10184899589A689D8
:1006B000B7892A013B01480E591E6A1E7B1E0D8117
:1006C0001E812F8138850C191D092E093F090D83C4
:1006D0001E832F83388709851A852B853C850C1945
:1006E0001D092E093F0909871A872B873C8724811A
:1006F000358146815781C501B4010E94100BDC0190
:10070000CB010D851E852F853889080F191F2A1FDB
:100710003B1F0D871E872F87388BD1011896CD90F0
:10072000DD90ED90FC901B97C40CD51CE61CF71CCB
:10073000C301B201A70196010E942F0B022F132FB4
:100740004A8F598F69857A858B859C85A70196018B
:100750000E942F0BF22EE32ED42EC52E8D889E885C
:10076000AF88B88C29813A814B815C81821A930AC7
:10077000A40AB50A602F712F8A8D998DA501940165
:100780000E94100BDC01CB0129813A814B815C81F5
:10079000280F391F4A1F5B1F29833A834B835C83D1
:1007A000D1011C962D933D934D935C931F976F2D14
:1007B0007E2D8D2D9C2DA50194010E94100BDC0136
:1007C000CB0129893A894B895C89820F931FA41F29
:1007D000B51FF101808B918BA28BB38BC301B2014A
:1007E000202F312F4A8D598D0E94100BDC01CB0137
:1007F000A3019201281B390B4A0B5B0BF101248BDF
:10080000358B468B578B6D817E818F819885202F0C
:10081000312F4A8D598D0E94100BDC01CB010D81C7
:100820001E812F813885081B190B2A0B3B0BF10108
:10083000008F118F228F338FC301B2012F2D3E2DD8
:100840004D2D5C2D0E94100BDC01CB0109851A8512
:100850002B853C85081B190B2A0B3B0BF101048FE0
:10086000158F268F378F6D817E818F8198852F2DF3
:100870003E2D0E94100BDC01CB010D851E852F85BE
:100880003889081B190B2A0B3B0BF10100A311A39C
:1008900022A333A369817A818B819C816A960FB6EA
:1008A000F894DEBF0FBECDBFDF91CF911F910F91A6
:1008B000FF90EF90DF90CF90BF90AF909F908F9080
:1008C0007F906F905F904F903F902F9008952F9260
:1008D0003F924F925F926F927F928F929F92AF92D0
:1008E000BF92CF92DF92EF92FF920F931F93CF931D
:1008F000DF93CDB7DEB762970FB6F894DEBF0FBEB9
:10090000CDBF5C0180ED6BE3AE014F5F5F4F2EE02A
:100910000E94FE06998180E04A8150E0482B592BC5
:10092000F501518340839B8180E06C8170E08C01F4
:10093000062B172B138302839D8180E06E8170E06C
:100940006C01C62AD72AD582C4823F8120E08885DF
:1009500090E07901E82AF92A398520E08A8590E03B
:100960004901882A992A938A828A3B8520E08C85CE
:1009700090E01901282A392A358A248A3D8520E009
:100980008E8590E02901482A592A578A468ABA0159
:10099000882777FD8095982F0E94730920E030E02A
:1009A00040E858E30E94530A0E944009DC01CB0151
:1009B000F50186839783A087B187B801882777FDE3
:1009C0008095982F0E94730920E030E040E858E3BA
:1009D0000E94530A0E944009DC01CB01F501828785
:1009E0009387A487B587B601882777FD8095982FD0
:1009F00022E538E340E050E00E942F0BF501268706
:100A00003787408B518BB701882777FD8095982FCA
:100A10000E94730920E030E04AEA53E40E94D808BB
:100A200028EB3EE142E152E40E940E08DC01CB01DA
:100A3000F50184A395A3A6A3B7A3B401882777FDE6
:100A40008095982F0E94730920E030E043E053E442
:100A50000E94D8080E944009DC01CB01F501808F7B
:100A6000918FA28FB38FB101882777FD8095982F42
:100A70000E94730920E030E043E053E40E94D8086C
:100A80000E944009DC01CB01F501848F958FA68F70
:100A9000B78FB201882777FD8095982F0E94730940
:100AA00020E030E043E053E40E94D8080E9440096F
:100AB000DC01CB01F50180A391A3A2A3B3A30E9403
:100AC000BF07AB01BC018091C4009091C500A0E0BC
:100AD000B0E08A019B01081B190B2A0B3B0B0F8707
:100AE000188B298B3A8B0E94BF07DC01CB019093B6
:100AF000C5008093C400F5018080918024803580FA
:100B0000889CB001899C700D989C700D1124229CCA
:100B1000C001239C900D329C900D1124680F791F09
:100B2000882777FD8095982F0E9473090E94BA0A42
:100B30000E944009C62EF72E082F192F0E94730914
:100B400020E030E0A9010E94D408882301F1F501DA
:100B500062817381882777FD8095982F2C2D3F2DFA
:100B6000402F512F0E942F0BCA01B9010E94730917
:100B70000E94AC0821EE3EE245E652E40E94530A90
:100B80000E944009462E572E682E792E03C0442419
:100B9000552432016627772768197909882777FD58
:100BA0008095982F0E9473096B017C01B101882701
:100BB00077FD8095982F0E9473099B01AC01C701B6
:100BC000B6010E94810821EE3EE245E652E40E9411
:100BD000530A0E944009462F572F682F792F463A13
:100BE000FFEF5F07FFEF6F07FFEF7F0754F4F5019B
:100BF00084A595A5A6A5B7A58B359105A105B10539
:100C000094F44B35510561057105DCF0F50184A5BF
:100C100095A5A6A5B7A5863AFFEF9F07FFEFAF07FB
:100C2000FFEFBF0774F440937C0050937D00609306
:100C30007E0070937F00F50144A755A766A777A7AC
:100C400014C0F501048D158D268D378D80E790E059
:100C5000CF84D888E988FA880E94C502DC01CB01DC
:100C6000F50184A795A7A6A7B7A7F50164A575A563
:100C700086A597A50E9473099F7720E030E044EB9A
:100C800052E40E94480A181684F4F501808D918D73
:100C9000A28DB38DB095A095909581959F4FAF4F44
:100CA000BF4F808F918FA28FB38FF501048D158D6B
:100CB000268D378D84E990E0B301A201CF84D888D6
:100CC000E988FA880E94C502DC01CB01F50180A702
:100CD00091A7A2A7B3A762960FB6F894DEBF0FBE86
:100CE000CDBFDF91CF911F910F91FF90EF90DF90DB
:100CF000CF90BF90AF909F908F907F906F905F90BC
:100D00004F903F902F9008958FB78F778FBF8A981D
:100D10008BB780648BBF85B7836085BF8FB78068D2
:100D20008FBF08958FB78F778FBF8B98939A8BB7AC
:100D300080688BBF85B7886085BF85B78B7F85BF8F
:100D40008FB780688FBF089582E080B911B882B9EB
:100D500084E086BF089584EA86BF06B607FEFDCF0D
:100D6000089584E986BF089583B984E886BF06B6EE
:100D700007FEFDCF089584EC86BF06B607FEFDCFC3
:100D800083B1089584E886BF06B607FEFDCF83B120
:100D9000089581B1887F08950F931F93CF93DF93B8
:100DA000182F062FEA010E94AB060E94C906883060
:100DB000C9F4812F0E94B4060E94C9068831A1F4AB
:100DC000802F0E94B4060E94C906883279F4888177
:100DD0000E94B4060E94C906883251F40E94B106EE
:100DE00081E007C080E005C080E003C080E001C072
:100DF00080E0DF91CF911F910F910895AF92BF9244
:100E0000CF92DF92EF92FF921F93CF93DF93C82F81
:100E1000D62F7A01122F0E94AB060E94C906883095
:100E2000E1F58C2F0E94B4060E94C9068831B9F5FD
:100E30008D2F0E94B4060E94C906883291F50E9447
:100E4000AB060E94C906803171F58C2F81600E942B
:100E5000B4060E94C906803441F5C12FD0E0219725
:100E60001C161D0674F45701CC24DD240E94BB0619
:100E7000F50181935F010894C11CD11CCC16DD06DD
:100E8000ACF3C12FD0E02197CE0DDF1D0E94C2062A
:100E900088830E94B10681E009C080E007C080E03D
:100EA00005C080E003C080E001C080E0DF91CF9109
:100EB0001F91FF90EF90DF90CF90BF90AF9008957B
:100EC00014BC13BC8F9A8AE685BD0895682F70E024
:100ED00080E090E00E94730923E333E343E250E4AF
:100EE0000E94530A0E94450963BD089513BC0895EA
:100EF00083B5855083BD08951DBC1CBC1BBC1ABCAA
:100F00008D9A82E88FBD8AE18EBD0895682F70E0CA
:100F100080E090E00E94730926E636ED43E254E457
:100F20000E94530A0E944509DC01CB019BBD8ABD8A
:100F300008951BBC1ABC08958AB59BB50A979BBD42
:100F40008ABD089512BE8AEF8CBF89B7826089BFBF
:100F50008DE883BF08958091B8009091B900A09169
:100F6000BA00B091BB000196A11DB11D8093B800DD
:100F70009093B900A093BA00B093BB00089560911C
:100F8000B8007091B9008091BA009091BB000895AB
:100F900088E98AB986E880BD10BC87E689B90895DA
:100FA0005D9BFECF8CB908955F9BFECF8CB10895F9
:100FB0000F931F93CF938C01FC018081882351F004
:100FC000C0E00E94D007CF5FF801EC0FF11D8081D7
:100FD0008823B9F7CF911F910F910895FF920F9336
:100FE0001F93CF93DF938C010E94D407F801808375
:100FF000833259F0FF24F394E801CF0DD11D0E94F4
:10100000D40788838332B9F701C0E8011882DF91E1
:10101000CF911F910F91FF9008955058BB27AA2799
:101020000ED0FCC1EDD130F0F2D120F031F49F3F71
:1010300011F41EF4BDC10EF4E095E7FBB3C1E92F36
:10104000FED180F3BA17620773078407950718F07B
:1010500071F49EF516C20EF4E0950B2EBA2FA02D5A
:101060000B01B90190010C01CA01A0011124FF2755
:10107000591B99F0593F50F4503E68F11A16F04050
:10108000A22F232F342F4427585FF3CF469537954F
:101090002795A795F0405395C9F77EF41F16BA0B14
:1010A000620B730B840BBAF09150A1F0FF0FBB1FC2
:1010B000661F771F881FC2F70EC0BA0F621F731F0B
:1010C000841F48F4879577956795B795F7959E3F68
:1010D00008F0B3CF9395880F08F09927EE0F9795F6
:1010E000879508958DD158F080E891E009F49EEF3E
:1010F0008ED128F040E851E059F45EEF09C058C1A4
:10110000C0C1E92FE0789BD168F3092E052AC1F30D
:10111000261737074807590738F00E2E07F8E0253D
:1011200069F0E025E0640AC0EF6307F8009407FA6D
:10113000DB01B9019D01DC01CA01AD01EF9347D08C
:101140006DD10AD05F91552331F02BED3FE049E49A
:1011500050FD49EC63CF0895DF93DD27B92FBF77AA
:1011600040E85FE31616170648075B0710F4D92F0F
:1011700093D19F938F937F936F933AD2E4E5F0E0FE
:101180001AD14CD12F913F914F915F9198D1DD238E
:1011900049F09058A2EA2AED3FE049EC5FE3D078AD
:1011A0005D274DDFDF913AC1D9D008F481E0089581
:1011B0000CD034C12CD140F023D130F021F45F3F6A
:1011C00019F0F0C051115EC1F3C039D198F39923E1
:1011D000C9F35523B1F3951B550BBB27AA276217FB
:1011E0007307840738F09F5F5F4F220F331F441F40
:1011F000AA1FA9F333D00E2E3AF0E0E830D0915078
:101200005040E695001CCAF729D0FE2F27D0660F64
:10121000771F881FBB1F261737074807AB07B0E8A3
:1012200009F0BB0B802DBF01FF2793585F4F2AF0B9
:101230009E3F510568F0B6C025C15F3FECF3983E74
:10124000DCF3869577956795B795F7959F5FC9F716
:10125000880F911D9695879597F90895E1E0660F9F
:10126000771F881FBB1F621773078407BA0720F018
:10127000621B730B840BBA0BEE1F88F7E095089581
:1012800004D06894B111FEC00895E1D088F09F5752
:1012900090F0B92F9927B751A0F0D1F0660F771FC2
:1012A000881F991F1AF0BA95C9F712C0B13081F0A2
:1012B000E8D0B1E00895E5C0672F782F8827B85FA0
:1012C00039F0B93FCCF3869577956795B395D9F703
:1012D0003EF490958095709561957F4F8F4F9F4F0D
:1012E0000895E89409C097FB3EF490958095709519
:1012F00061957F4F8F4F9F4F9923A9F0F92F96E962
:10130000BB279395F695879577956795B795F111D6
:10131000F8CFFAF4BB0F11F460FF1BC06F5F7F4F73
:101320008F4F9F4F16C0882311F096E911C0772385
:1013300021F09EE8872F762F05C0662371F096E88E
:10134000862F70E060E02AF09A95660F771F881F5D
:10135000DAF7880F9695879597F90895990F000801
:10136000550FAA0BE0E8FEEF16161706E807F90777
:10137000C0F012161306E407F50798F0621B730B12
:10138000840B950B39F40A2661F0232B242B252B93
:1013900021F408950A2609F4A140A6958FEF811D36
:1013A000811D089597F99F6780E870E060E00895D7
:1013B0009FEF80EC0895DF93CF931F930F93FF92DD
:1013C000EF92DF927B018C01689405C0DA2EEF0169
:1013D00076D0FE01E894A5912591359145915591DE
:1013E000AEF3EF012CDEFE019701A801DA9479F744
:1013F000DF90EF90FF900F911F91CF91DF910895B3
:1014000000240A94161617061806090608950024E3
:101410000A9412161306140605060895092E03945D
:10142000000C11F4882352F0BB0F40F4BF2B11F4D1
:1014300060FF04C06F5F7F4F8F4F9F4F089557FD30
:101440009058440F551F59F05F3F71F04795880F32
:1014500097FB991F61F09F3F79F0879508951216C9
:1014600013061406551FF2CF4695F1DF08C0161675
:1014700017061806991FF1CF869571056105089426
:101480000895E894BB2766277727CB0197F908953D
:1014900065DF08F48FEF08959B01AC0160E070E018
:1014A00080E89FE385CE0BD0B9CFAADF28F0AFDF6D
:1014B00018F0952309F076CF7BCF1124E3CFBFDF5F
:1014C000A0F3959FD1F3950F50E0551F629FF00157
:1014D000729FBB27F00DB11D639FAA27F00DB11DB0
:1014E000AA1F649F6627B00DA11D661F829F222739
:1014F000B00DA11D621F739FB00DA11D621F839FC0
:10150000A00D611D221F749F3327A00D611D231F95
:10151000849F600D211D822F762F6A2F11249F57E3
:1015200050408AF0E1F088234AF0EE0FFF1FBB1F06
:10153000661F771F881F91505040A9F79E3F5105A5
:1015400070F030CF9FCF5F3FECF3983EDCF3869591
:1015500077956795B795F795E7959F5FC1F7FE2B50
:10156000880F911D9695879597F9089511F40EF4BB
:101570001FCF41C06CDFD0F39923D9F3CEF39F572F
:10158000550B87FF46D00024A0E640EA9001805822
:101590005695979528F4805C660F771F881F20F07A
:1015A00026173707480730F4621B730B840B20297A
:1015B00031294A2BA69517940794202531254A27CF
:1015C00058F7660F771F881F20F026173707480740
:1015D00030F4620B730B840B200D311D411DA0955F
:1015E00081F7B901842F9158880F969587950895B2
:1015F0009B01AC0158CF9F3F31F0915020F487956B
:1016000077956795B795880F911D9695879597F96A
:10161000089591505040660F771F881FD2F70895A4
:10162000629FD001739FF001829FE00DF11D649FC6
:10163000E00DF11D929FF00D839FF00D749FF00D52
:10164000659FF00D9927729FB00DE11DF91F639FF3
:10165000B00DE11DF91FBD01CF011124089597FBC5
:10166000092E05260ED057FD04D014D00AD0001C38
:1016700038F450954095309521953F4F4F4F5F4F2F
:101680000895F6F790958095709561957F4F8F4FEF
:101690009F4F0895A1E21A2EAA1BBB1BFD010DC08E
:1016A000AA1FBB1FEE1FFF1FA217B307E407F50712
:1016B00020F0A21BB30BE40BF50B661F771F881FEE
:1016C000991F1A9469F760957095809590959B0184
:0C16D000AC01BD01CF010895F894FFCFDC
:0616DC0016005238000068
:00000001FF
